:020000040000FA
:1000000002EF00F0D3505309D36E010E926E956A41
:10001000000EC16E000EC26E900EC06E010EC26E5A
:10002000146A0090846A6CEC00F07FEC00F096ECAF
:1000300000F049EC00F0010E146242EC00F03BECE1
:1000400000F0E7EC00F088EC00F00E50030B0E6EB1
:10005000010E0E622EEF00F053EC00F0000E0E6267
:1000600034EF00F05BEC00F0110E0E623AEF00F09E
:100070005BEC00F0D8D7C4CF13F035EC01F014904E
:1000800021EF00F0C3CF13F035EC01F0148021EF25
:1000900000F0030EC26E4EEC00F01200030EC21808
:1000A000D8B4FCD712008D8002501E0B026E42ECB9
:1000B00002F08D9012008D8202501E0B026E42ECF7
:1000C00002F08D9212008D8402501E0B026E42ECE3
:1000D00002F08D943AEF00F0826A816A93929380E5
:1000E000949EC650F00BC66EC6500209C66EC698E6
:1000F000C78EC78C9D969F969E96C68A1200C15049
:100100000F09C16E9394939693888A948A861200FD
:100110000550000B056E1BEC02F00550000B056E40
:100120000850FD0B046EF9EC01F012008A94D6EC35
:1001300001F00550010B056E04503F0B046EF9EC05
:1001400001F00550020B056E04503F0B046EF9ECF4
:1001500001F00550030B056E0450030B046EF9EC1F
:1001600001F00550040B056E0450000B100D0A0F32
:10017000046EF9EC01F00550050B056E0450400BC0
:10018000046EF9EC01F00550060B056E0450000BEF
:10019000060F010F046EF9EC01F005500B0B056E14
:1001A0000450080B010F046EF9EC01F00550000B30
:1001B000056E0450080B040F020F000F046EF9ECDB
:1001C00001F00250320B026E42EC02F012000950B4
:1001D000000B096E0A50000B0A6E0B50000B0B6EE1
:1001E000FF0E09621FEC01F022EC01F04E0E0A62D4
:1001F000FCEF00F025EC01F0070E0B6202EF01F0BE
:100200002EEC01F09350000B9362EAD7CCEC01F096
:100210000D50100B0D6E100E0D6211EF01F0A3ECDE
:1002200001F00D50200B0D6E200E0D621AEF01F043
:10023000B6EC01F09350080B9362E8D71200092A3C
:10024000F6EF00F00A2AF6EF00F00950000B096EF5
:100250000A50000B0A6E0B2AFCEF00F00C50030B47
:100260000C6E0CC00EF006EF01F013C012F0100E71
:100270006FEC01F00A0E6FEC01F01150010B116EE2
:100280004FEC01F08A840250C80B026E42EC02F07F
:100290008A940250320B026E42EC02F012008A96EF
:1002A000A00E006E39EC02F0010E11625CEC01F060
:1002B00063EC01F08A86120012C000F0006E39EC87
:1002C00002F05AEF01F012C000F0006E39EC02F0BB
:1002D0000750000F006E39EC02F05AEF01F00F6A80
:1002E0008A96200F006E106E39EC02F0B20E006E8E
:1002F00039EC02F0B20E006E39EC02F0B30E006E73
:1003000039EC02F0B40E006E39EC02F0010E006E12
:1003100039EC02F08A869AEC01F00F8007500062F7
:100320000F6A0F5000090F6E000E0F6299EF01F077
:10033000D7D712008A9610C000F0000E006E39EC7C
:1003400002F08A8612000550080B056E1BEC02F0C5
:1003500008500F0B0402000F086E08C00EF0065084
:10036000100B066E2CEC02F011EF01F00C50010B9B
:100370000C6E0550080B056E1BEC02F008500F0BBD
:100380000402010F086E08C00EF00650200B066E26
:100390002CEC02F01EEF01F08A960050FF09006E6F
:1003A00039EC02F08A8607C00DF012008A960050E0
:1003B000E109006E39EC02F08A8602500509026EEE
:1003C00042EC02F08A960050E209006E39EC02F02D
:1003D0008A8606504009066E2CEC02F00650200971
:1003E000066E2CEC02F006501009066E2CEC02F0A2
:1003F00012008A9605C000F00050200F006E39EC04
:1004000002F004C000F039EC02F08A8605C000F06A
:100410001BEC02F08A9605C000F00050200F006E21
:1004200039EC02F004C000F039EC02F08A86085082
:100430000462F0D712008A9605C000F00050000F49
:10044000006E39EC02F000500009006E39EC02F049
:100450008A8607C008F012008A960350200F036EA8
:100460000350070F036E06C000F039EC02F08A86D5
:10047000120000C0C9FF000E9E62FDD79E96C9CF34
:0E04800007F012000250016E012EFED712008E
:02048E0000006C
:020000040030CA
:0100000000FF
:010001000BF3
:010002001FDE
:010003001EDE
:0100050003F7
:010006008079
:010008000FE8
:01000900C036
:01000A000FE6
:01000B00E014
:01000C000FE4
:01000D0040B2
:00000001FF
